:100000001AC034C033C032C031C030C02FC02EC07F
:100010002DC02CC02BC02AC029C028C027C026C094
:1000200025C024C023C08FC292C293C294C295C27D
:1000300096C297C298C211241FBECFE5D4E0DEBF9E
:10004000CDBF10E0A0E6B0E0ECEDF5E002C0059019
:100050000D92A236B107D9F710E0A2E6B0E001C0D8
:100060001D92A336B107E1F74ED2B7C2C9CF9C01AA
:10007000892B39F080ED97E00197F1F7215030405E
:10008000C9F70895A0E0B0E094D2802D90E00895E3
:10009000A0E0B0E0082E95D208958FEF81BB14BA8E
:1000A00087BB18BA14BA939A0895089585E088BB5F
:1000B000929AC69A9B9903C092989B9BFDCF929A65
:1000C0000895929888BB929AC69A92989B9BFECF6D
:1000D000929A089584E090E0F4DF8BE190E0F1DF04
:1000E0008BE190E0EEDF84E190E0EBDF84E090E0F4
:1000F000E8DF84E090E0E5DF84E090E0E2DF84E0A8
:1001000090E0DFDF88E190E0DCDF86E090E0D9DF9F
:1001100084E090E0D6DF84E090E0D3DF8AE190E0F5
:10012000D0DF8AE190E0CDDF80E190E0CADF82E0BD
:1001300090E0C7DF8DE090E0C4DF87E190E0C1DFB1
:1001400087E190E0BEDF82E090E0BBDF8AE290E0F2
:10015000B8DF8CE090E0B5DF8CE290E0B2DF84E0C5
:1001600090E0AFDF8DE090E0ACDF86E190E0A9DFCA
:1001700082E090E0A6DF81E390E0A3DF81E390E0FE
:10018000A0DF86E190E09DDF86E190E09ADF86E1E6
:1001900090E097DF84E090E094DF84E090E091DFEE
:1001A00084E090E08EDF089584E090E08ADF88E2CA
:1001B00090E087DF88E290E084DF8EE090E081DFEE
:1001C00083E190E07EDF89E290E07BDF8FE090E0EA
:1001D00078DF8BE290E075DF85E390E072DF83E10A
:1001E00090E06FDF86E390E06CDF84E090E069DF11
:1001F0008EE090E066DF85E390E063DF81E090E0F1
:1002000060DF8FE390E05DDF88E190E05ADF82E01D
:1002100090E057DF81E190E054DF87E390E051DF29
:1002200084E090E04EDF84E090E04BDF89E090E0F6
:1002300048DF8DE290E045DF83E190E042DF87E335
:1002400090E03FDF84E090E03CDF8EE090E039DF3B
:1002500083E190E036DF89E090E033DF8FE090E0EB
:1002600030DF85E390E02DDF87E290E02ADF8DE04C
:1002700090E027DF84E090E024DF81E190E021DF5F
:100280008FE190E01EDF84E090E01BDF82E190E0F0
:1002900018DF8FE090E015DF84E090E012DF82E06D
:1002A00090E00FDF85E190E00CDF8AE190E009DF6C
:1002B0008AE190E006DF88E390E003DF87E390E0E7
:1002C00000DF87E390E0FDDE84E090E0FADE88E284
:1002D00090E0F7DE8EE390E0F4DE8AE390E0F1DE7A
:1002E0008AE390E0EEDE84E090E0EBDE089584E0C7
:1002F00090E0E7DE8BE190E0E4DE87E090E0E1DE95
:100300008DE290E0DEDE8FE090E0DBDE85E390E0E2
:10031000D8DE8DE290E0D5DE86E090E0D2DE8DE2A0
:1003200090E0CFDE8FE090E0CCDE84E090E0C9DEAC
:1003300084E090E0C6DE0895CF93DF93C1E0D0E083
:10034000CE01BFDE80E090E0BCDE2196C234D10554
:10035000B9F7DF91CF91089589E190E0B2DE87E0AF
:1003600090E0AFDE87E090E0ACDE87E390E0A9DECE
:1003700087E390E0A6DE84E090E0A3DE089588E3C2
:1003800090E09FDE8FE090E09CDE85E390E099DED8
:1003900084E090E096DE08958AE190E092DE86E2C5
:1003A00090E08FDE84E090E08CDE88E190E089DEF2
:1003B00086E090E086DE84E090E083DE84E090E0FA
:1003C00080DE87E390E07DDE87E390E07ADE83E104
:1003D00090E077DE84E090E074DE8CE090E071DE07
:1003E00081E190E06EDE84E090E06BDE89E190E0F8
:1003F00068DE87E090E065DE87E090E062DE87E31C
:1004000090E05FDE87E390E05CDE84E090E059DE20
:1004100008958AE190E055DE87E390E052DE89E2BC
:1004200090E04FDE84E090E04CDE8AE190E049DE2F
:1004300082E290E046DE8AE190E043DE8BE090E0ED
:1004400040DE84E090E03DDE8DE290E03ADE87E041
:1004500090E037DE84E190E034DE82E090E031DE4F
:100460008DE090E02EDE82E390E02BDE08958FE3B6
:1004700090E027DE87E090E024DE87E090E021DE58
:1004800082E090E01EDE8DE090E01BDE82E390E0F3
:1004900018DE88E390E015DE88E190E012DE82E06D
:1004A00090E00FDE8DE090E00CDE84E090E009DE6D
:1004B0008DE090E006DE87E090E003DE87E090E0EC
:1004C00000DE8DE290E0FDDD84E090E0FADD81E386
:1004D00090E0F7DD81E390E0F4DD86E190E0F1DD8E
:1004E00086E190E0EEDD86E190E0EBDD84E090E0F7
:1004F000E8DD88E390E0E5DD80E290E0E2DD84E0A5
:1005000090E0DFDD0895BEDD8093620090E090937F
:10051000610080936000C1DD919A92988AEF90E02B
:10052000A6DD919A8AEF90E0A2DD80E090E0C9DD3F
:10053000909A8091600090916100FC010897A0F46E
:10054000ED5EFF4F099480E090E0BBDD0DC08FDFD2
:100550000BC05FDF09C0CBDE07C026DE05C0FCDEB6
:1005600003C00DDF01C018DF8AEF90E080DD9198B5
:10057000809160009091610001969093610080935A
:1005800060008091600090916100089730F081E0F8
:1005900090E0909361008093600080916000909162
:1005A00061008093620074DD87EE93E060DD9198D6
:1005B000B8CFE199FECFBFBBAEBBE09A11960DB2AA
:1005C0000895E199FECFBFBBAEBB0DBA11960FB631
:0C05D000F894E29AE19A0FBE0895FFCF64
:0205DC00050018
:00000001FF
